TXN00P000120260226DEP100200300001000000750000USDPAYROLL ADVANCE               A10001
TXN00P000220260226WDR100200300004000000125000USDPOS PURCHASE GROCERY STORE    A10004
TXN00P000320260226DEP100200300005000000300000USDCHECK DEPOSIT                 A10005
TXN00P000420260226TRF100200300002000000500000USDONLINE TRANSFER IN            A10002
TXN00P000520260226WDR100200300003000000045000USDCASH WITHDRAWAL               A10003
TXN00P000620260226FEE100200300004000000002500USDMONTHLY SERVICE FEE           A10004
