TXN000000120260227DEP100200300001000000500000USDPAYROLL DEPOSIT               A10001
TXN000000220260227WDR100200300002000000075050USDATM WITHDRAWAL NYC            A10002
TXN000000320260227TRF100200300001000000250000USDONLINE TRANSFER OUT           A10001
TXN000000420260227DEP100200300003000001000000USDWIRE TRANSFER RECEIVED        A10003
TXN000000520260227FEE100200300002000000002500USDMONTHLY SERVICE FEE           A10002
