H20260305000001BANKING01 BANK-BATCH-INPUT.DAT                                                                           
DTXN20260012026030520260307DEP100200300001000000500000USD0001000000A10001PAYROLL DEPOSIT MARCH 2026    DIRECT DEP       
DTXN20260022026030520260305WDR100200300002000000025050USD0001000000A10001ATM WITHDRAWAL MAIN ST        ATM#4521         
DTXN20260032026030520260306TRF100200300003000000250000USD0001000000A10002WIRE TRANSFER TO SAVINGS ACCT REF#W2026001     
DTXN20260042026030520260305FEE100200300001000000000500USD0001000000A10001MONTHLY SERVICE CHARGE        SVC FEE MAR26    
DTXN20260052026030520260308DEP100200300004000000108500EUR0001085000P10003INTL WIRE RECEIPT EUR PAYMENT SWIFT REF#0305   
T000000050000000000884050000000001100000001                                                                             
