H20260304000001BANKING01 BANK-BATCH-INPUT.DAT                                                                           
DTXN2026P012026030420260306DEP200100400001000000750000USD0001000000A20001DIRECT DEPOSIT SALARY         FEB 2026 SAL     
DTXN2026P022026030420260304WDR200100400002000000050000USD0001000000A20001POS PURCHASE WALMART STORE    POS#W2026030     
DTXN2026P032026030420260305TRF200100400001000000500000USD0001000000A20002ACH DEBIT TO SAVINGS LINK     SAVINGS-LINK     
DTXN2026P042026030420260304FEE200100400003000000001500USD0001000000A20001OVERDRAFT FEE Q1 2026         OD FEE CODE01    
DTXN2026P052026030420260307DEP200100400004000000200000CAD0000750000A20003CROSS BORDER WIRE RECEIPT     WIRE-TF-20260    
T000000050000000001501500000000001100000000                                                                             
